:100000002AC039C038C037C036C035C034C033C04C
:1000100032C031C030C075C02EC02DC02CC02BC026
:100020002AC000003A003700000039003600000006
:100030003B0038000101010101010101020202013E
:1000400002040810204080040201000000000004A7
:1000500003020100000011241FBECFE5D1E0DEBF86
:10006000CDBF20E0A0E6B0E001C01D92A936B207E6
:10007000E1F791D014C1C4CF823099F018F48130E7
:1000800069F00895833019F0843021F008958FB518
:100090008F7702C08FB58F7D8FBD089580B78F7722
:1000A00002C080B78F7D80BF08951F93CF93DF93E9
:1000B000E1E5F0E09491E6E4F0E0D491EBE3F0E0E8
:1000C000C491CC23D1F0182F992311F0892FD4DFBC
:1000D000EC2FF0E0EE0FFF1FE25DFF4FA591B49112
:1000E0008FB7F894111105C09C91ED2FE095E9238D
:1000F00002C0EC91ED2BEC938FBFDF91CF911F915C
:1001000008951F920F920FB60F9211242F933F93D1
:100110008F939F93AF93BF938091650090916600FA
:10012000A0916700B09168003091640026E0230F31
:100130002D3720F40296A11DB11D05C029E8230F1B
:100140000396A11DB11D20936400809365009093D8
:100150006600A0936700B093680080916000909162
:100160006100A0916200B09163000196A11DB11DD4
:100170008093600090936100A0936200B09363004D
:10018000BF91AF919F918F913F912F910F900FBE93
:100190000F901F901895789480B7826080BF80B7C9
:1001A000816080BF83B7826083BF83B7816083BF74
:1001B00089B7816089BF1EBC8EB582608EBD8EB549
:1001C00081608EBD8FB581608FBD329A319A309833
:1001D000379AE6E4F0E02491EBE3F0E084918823A1
:1001E00099F090E0880F991FFC01EE5DFF4FA591FB
:1001F000B491FC01E25DFF4F859194918FB7F89423
:10020000EC91E22BEC938FBFC1E4D0E0FE0124918E
:1002100006E310E0F80184918823C9F090E0880F8C
:10022000991FFC01EE5DFF4FA591B491825D9F4F38
:10023000FC01459154913FB7F8949C91822F809591
:1002400098239C93FA019081892380833FBF9CE48B
:10025000E92E90E0F92E20E0C22E20E0D22EF70108
:100260008491FE01A490F801B490BB2089F0811123
:1002700003DFEB2DF0E0EE0FFF1FCF01885D9F4FF6
:10028000FC01A591B4918C91A82211F081E001C0EC
:1002900080E00BDFC114D10411F3B2DEE0CFF8949B
:0202A000FFCF8E
:00000001FF
