:1000000021C030C02FC02EC02DC02CC02BC02AC094
:1000100029C028C027C04EC025C024C023C045C168
:100020008FC000003B00380000003A00370001019B
:100030000101010101010202020102040810204035
:100040008004020111241FBECFE5D2E0DEBFCDBF88
:1000500020E0A0E6B0E001C01D92A03BB207E1F7AE
:1000600041D184C4CDCFE0916000F0E0E157FF4F73
:100070008081909185009031E1F3E0918600F0E07D
:10008000EF58FF4F8083809186008F5F8F70809341
:100090008600809185008F5F80938500809160004D
:1000A0008F5F8093600080916000843010F0109228
:1000B000600008951F920F920FB60F9211242F9394
:1000C0003F938F939F93AF93BF938091AC00909198
:1000D000AD00A091AE00B091AF003091AB0026E62C
:1000E000230F2D3728F029EE230F0196A11DB11DF6
:1000F0002093AB008093AC009093AD00A093AE0032
:10010000B093AF008091A7009091A800A091A900A2
:10011000B091AA000196A11DB11D8093A7009093F4
:10012000A800A093A900B093AA00BF91AF919F919E
:100130008F913F912F910F900FBE0F901F901895A8
:100140001F920F920FB60F9211242F933F934F934C
:100150005F936F937F938F939F93AF93BF93EF932F
:10016000FF9380918300909184008230910509F47F
:1001700059C028F4009761F0019779F185C0843067
:10018000910509F458C030F1059709F45DC07CC0B1
:100190008FB1882331F08FB1869590918B008913B0
:1001A0003EC0789B67C0E0918100F091820030975B
:1001B00039F080918800882319F080918800099592
:1001C000E0918C00F0918D00309709F0099581E065
:1001D00090E052C08FB1811122C0809185008823A8
:1001E000D1F0E0918700F0E0EF58FF4F80818FB9A8
:1001F000809187008F5F8F7080938700809185004A
:1002000081508093850082E090E0909384008093F9
:100210008300D69A17C0D6981FB88EE78EB988EAA1
:100220008DB910C083E090E09093840080938300A8
:10023000D6981FB827C085E090E090938400809303
:100240008300D69880E71FC080918800803190F4A9
:10025000E09189008FB1F0E0EF59FF4F80838091EA
:1002600089008F5F8F7080938900809188008F5FF5
:100270008093880084E090E09093840080938300D2
:100280001FB8D69A8EE78EB9FF91EF91BF91AF91CB
:100290009F918F917F916F915F914F913F912F919E
:1002A0000F900FBE0F901F9018951F920F920FB6D0
:1002B0000F9211248F931092840010928300D6988D
:1002C000CC9B02C0CE9BFCCFCE9902C088EF01C070
:1002D00088EA8DB980EF8EB98F910F900FBE0F9085
:1002E0001F901895789480B7826080BF80B7816036
:1002F00080BF83B7826083BF83B7816083BF89B7C4
:10030000816089BF1EBC8EB582608EBD8EB5816056
:100310008EBD8FB581608FBD329A319A309A379AEF
:10032000E0E4F0E02491E5E3F0E08491882399F0A3
:1003300090E0880F991FFC01E85DFF4FA591B491F3
:10034000FC01EE5DFF4F859194918FB7F894EC918D
:10035000E22BEC938FBF81E080938E0010928A0095
:1003600010928900109288001092870010928600E7
:100370001092850083E180938B008AB380658ABBED
:10038000DC9ADE9AD69888EA8DB980EF8EB983E33D
:1003900090E090938D0080938C0080E886BD16BC21
:1003A000C0E0D0E08FB7F894C090AC00D090AD0022
:1003B000E090AE00F090AF008FBF8091A3009091CD
:1003C000A400A091A500B091A600C816D906EA061F
:1003D000FB0609F4CFC0A7019601281B390B4A0B75
:1003E0005B0B233331054105510508F4C3C01D984B
:1003F00080918E008295880F880F807C816087B9FC
:10040000369A3699FECF64B185B170E0782B072E0D
:10041000000C880B990BB3D120E030E040E05FE3A3
:10042000AFD020E030E040E85AE335D220E030E0C1
:1004300040EA50E430D260939F007093A000809314
:10044000A1009093A20023E333EF4BE254E423D2C4
:1004500020E030E040EA50E4F7D026EF38E246E909
:1004600051E48DD020E030E048EC52E414D22B016E
:100470003C0160939B0070939C0080939D0090933F
:100480009E0020E030E048EC52E4DED0609397001C
:10049000709398008093990090939A0080909300B5
:1004A00090909400A0909500B0909600C301B20186
:1004B00033D1072E000C880B990B61D120E030E07E
:1004C00040E05FE3E8D12B013C01C501B40157D105
:1004D00020E030E040E05FE3DED19B01AC01C301EE
:1004E000B2014ED019D1CB01770FAA0BBB0B809371
:1004F000930090939400A0939500B0939600809100
:10050000930090919400A0919500B09196008B2F4C
:100510009927AA27BB2780938F0080919300909101
:100520009400A0919500B0919600CD01AA27BB2719
:10053000809390008091930090919400A0919500F9
:10054000B0919600892F9A2FAB2FBB2780939100F3
:100550008091930090919400A0919500B0919600A5
:1005600080939200C092A300D092A400E092A500D4
:10057000F092A600209709F415CF42DD13CF505812
:10058000BB27AA270ED04DC13ED130F043D120F079
:1005900031F49F3F11F41EF433C10EF4E095E7FBF4
:1005A00029C1E92F4FD180F3BA1762077307840777
:1005B000950718F071F49EF567C10EF4E0950B2EC7
:1005C000BA2FA02D0B01B90190010C01CA01A001A5
:1005D0001124FF27591B99F0593F50F4503E68F100
:1005E0001A16F040A22F232F342F4427585FF3CF41
:1005F000469537952795A795F0405395C9F77EF412
:100600001F16BA0B620B730B840BBAF09150A1F05A
:10061000FF0FBB1F661F771F881FC2F70EC0BA0FE0
:10062000621F731F841F48F4879577956795B79568
:10063000F7959E3F08F0B3CF9395880F08F0992760
:10064000EE0F9795879508950CD0EBC0E3D040F05E
:10065000DAD030F021F45F3F19F0CCC0511115C150
:10066000CFC0F0D098F39923C9F35523B1F3951B6C
:10067000550BBB27AA2762177307840738F09F5FC3
:100680005F4F220F331F441FAA1FA9F333D00E2E32
:100690003AF0E0E830D091505040E695001CCAF79F
:1006A00029D0FE2F27D0660F771F881FBB1F261764
:1006B00037074807AB07B0E809F0BB0B802DBF0137
:1006C000FF2793585F4F2AF09E3F510568F092C074
:1006D000DCC05F3FECF3983EDCF386957795679539
:1006E000B795F7959F5FC9F7880F911D96958795E8
:1006F00097F90895E1E0660F771F881FBB1F621707
:1007000073078407BA0720F0621B730B840BBA0BC4
:10071000EE1F88F7E095089504D06894B111B5C034
:10072000089598D088F09F5790F0B92F9927B75126
:10073000A0F0D1F0660F771F881F991F1AF0BA95A5
:10074000C9F712C0B13081F09FD0B1E008959CC0CC
:10075000672F782F8827B85F39F0B93FCCF386959B
:1007600077956795B395D9F73EF4909580957095F8
:1007700061957F4F8F4F9F4F0895E89409C097FB75
:100780003EF490958095709561957F4F8F4F9F4F68
:100790009923A9F0F92F96E9BB279395F6958795AC
:1007A00077956795B795F111F8CFFAF4BB0F11F46F
:1007B00060FF1BC06F5F7F4F8F4F9F4F16C0882316
:1007C00011F096E911C0772321F09EE8872F762F4C
:1007D00005C0662371F096E8862F70E060E02AF08D
:1007E0009A95660F771F881FDAF7880F9695879579
:1007F00097F9089597F99F6780E870E060E00895A1
:100800009FEF80EC089500240A9416161706180628
:100810000906089500240A94121613061406050604
:100820000895092E0394000C11F4882352F0BB0F95
:1008300040F4BF2B11F460FF04C06F5F7F4F8F4FF8
:100840009F4F089557FD9058440F551F59F05F3F33
:1008500071F04795880F97FB991F61F09F3F79F0E2
:1008600087950895121613061406551FF2CF469564
:10087000F1DF08C0161617061806991FF1CF8695E6
:100880007105610508940895E894BB2766277727CA
:10089000CB0197F908950AD0C4CFB5DF28F0BADFAD
:1008A00018F0952309F0A6CFABCFEFCFCBDFA8F39D
:1008B0009923D9F35523C9F3950F50E0551FAA2763
:1008C000EE27FF27BB2700240894679520F4E20F4A
:1008D000F31FB41F0A1E220F331F441FAA1F669561
:1008E000A9F7779530F4F30FB41F0A1E121E08F40F
:1008F0006395330F441FAA1F221F769599F787959A
:1009000020F4B40F0A1E121E631F440FAA1F221FD9
:10091000331F8695A9F7862F712D602D11249F57BF
:1009200050408AF0E1F088234AF0EE0FFF1FBB1F12
:10093000661F771F881F91505040A9F79E3F5105B1
:1009400070F058CFA2CF5F3FECF3983EDCF3869572
:1009500077956795B795F795E7959F5FC1F7FE2B5C
:10096000880F911D9695879597F90895F894FFCF74
:00000001FF
